:020000040000FA
:0400000007EF00F016
:100008003882CAED03F02AEF04F01250800B1B6E01
:1000180012501224216E11AE14EF00F016EF00F00A
:1000280017EF00F021802150D8B41DEF00F01FEF2A
:1000380000F032EF00F02128D8A425EF00F027EFD8
:1000480000F02FEF00F0000E0F6E000E106E000E85
:10005800116E000E126E118E3AEF00F0000E0F6E48
:10006800000E106E000E116E000E126E1650800BF0
:100078001B1A16501624206E15AE45EF00F047EFF8
:1000880000F048EF00F020802050D8B44EEF00F088
:1000980050EF00F063EF00F02028D8A456EF00F0EE
:1000A80058EF00F060EF00F0000E136E000E146EB3
:1000B800000E156E000E166E158E6BEF00F0000E1A
:1000C800136E000E146E000E156E000E166E205084
:1000D800D8B471EF00F073EF00F07BEF00F021501F
:1000E800D8A479EF00F07BEF00F085EF00F0000E68
:1000F8000F6E000E106E000E116E000E126E1DEFC8
:1001080002F015500F02F3CF26F0F4CF27F0265057
:100118001C6E1D6A1E6A1F6A2750226E236A246A93
:10012800256A14501002F3CF26F0F4CF27F026509A
:100138001C26000E1D221E221F2227502226000EDA
:1001480023222422252213501102F3CF26F0F4CFC4
:1001580027F026501C26000E1D221E221F22275083
:100168002226000E2322242225221EC01FF01DC095
:100178001EF01CC01DF01C6A13501002F3CF26F0AD
:10018800F4CF27F026501C2627501D22000E1E22D1
:10019800000E1F2214500F02F3CF26F0F4CF27F0E1
:1001A80026501C2627501D22000E1E22000E1F223C
:1001B8001EC01FF01DC01EF01CC01DF01C6A13508D
:1001C8000F02F3CF26F0F4CF27F026501C26275035
:1001D8001D22000E1E22000E1F2215501002F3CF02
:1001E80026F0F4CF27F02650222627502322000E8F
:1001F8002422000E252214501102F3CF26F0F4CF4A
:1002080027F02650222627502322000E2422000EF3
:10021800252215501102F3CF26F0F4CF27F02650EF
:10022800176E2750186E196A1A6A19C01AF018C082
:1002380019F017C018F0176A1750222618502322F1
:10024800195024221A5025221CC017F01DC018F07E
:100258001EC019F01FC01AF0190E38EF01F0D8901F
:100268001A32193218321732E82E33EF01F01750CC
:10027800222618502322195024221A5025221EC043
:100288001FF01DC01EF01CC01DF01C6A205021C0AC
:1002980017F0186A1726000E1822820E1724266EE9
:1002A800FF0E1820276E6EEF01F0D8902236233605
:1002B800243625361FAE63EF01F065EF01F066EFD7
:1002C80001F02280D8901C361D361E361F362606B1
:1002D800D8A0270624AE73EF01F075EF01F059EFAF
:1002E80001F0000E206E1FAE7CEF01F07EEF01F0F2
:1002F800A2EF01F0FF0E1C14176EFF0E1D14186EEE
:10030800FF0E1E14196E7F0E1F141A6E1750181048
:1003180019101A10D8B493EF01F095EF01F099EF86
:1003280001F0010E206EA2EF01F022A09EEF01F075
:10033800A0EF01F0A2EF01F095EF01F02050D8B442
:10034800A8EF01F0AAEF01F0CEEF01F0010E22268E
:10035800000E23222422252225A0B5EF01F0B7EFB5
:1003680001F0CEEF01F022C017F023C018F024C02E
:1003780019F025C01AF01A341A3219321832173205
:1003880017C022F018C023F019C024F01AC025F0B5
:10039800264A272A27BED9EF01F0275008E1262848
:1003A800D8A0D9EF01F0DBEF01F0E5EF01F0000E86
:1003B800226E000E236E800E246E7F0E256E13EFC4
:1003C80002F027BEF2EF01F0275006E12604D8B06C
:1003D800F0EF01F0F2EF01F0FEEF01F0000E226EF7
:1003E800000E236E000E246E000E256E000E1B6E8E
:1003F80013EF02F026C021F0FF0E2216FF0E23167F
:100408007F0E2416000E251621A00DEF02F00FEF27
:1004180002F010EF02F0248ED8902130256E1B5088
:10042800251222C00FF023C010F024C011F025C0FF
:1004380012F01200096E0950D8B425EF02F027EF28
:1004480002F049EF02F004BE2EEF02F02CEF02F0AA
:1004580049EF02F001C005F002C006F003C007F042
:1004680004C008F0051E061E071E081E052A000EF9
:1004780006220722082205C00BF006C00CF007C0B0
:100488000DF008C00EF051EF02F001C00BF002C0F1
:100498000CF003C00DF004C00EF001500210031060
:1004A8000410D8A45AEF02F05CEF02F066EF02F0F5
:1004B800000E016E000E026E000E036E000E046E3A
:1004C800F7EF02F0960E0A6E70EF02F00A2AD89043
:1004D8000E320D320C320B32000E0B14056E000E6C
:1004E8000C14066E000E0D14076EFE0E0E14086E28
:1004F8000550061007100810D8A485EF02F087EF02
:1005080002F06AEF02F095EF02F00A2A010E0B26BC
:10051800000E0C220D220E22D8900E320D320C3213
:100528000B32000E0B14056E000E0C14066E000E36
:100538000D14076EFF0E0E14086E055006100710F6
:100548000810D8A4AAEF02F0ACEF02F089EF02F08D
:10055800B4EF02F00A06D8900B360C360D360E367C
:100568000DBEB9EF02F0BBEF02F0C3EF02F0020ECE
:100578000A60C1EF02F0C3EF02F0AEEF02F00AB07A
:10058800C8EF02F0CAEF02F0CBEF02F00D9ED89050
:100598000A320AC005F0066A076A086A05C008F048
:1005A800076A066A056A05500B1206500C120750B6
:1005B8000D1208500E120950D8B4E5EF02F0E7EF1B
:1005C80002F0EFEF02F004BEEEEF02F0ECEF02F003
:1005D800EFEF02F00E8E0BC001F00CC002F00DC060
:1005E80003F00EC004F012002A342B34316E31505F
:1005F800D8A401EF03F003EF03F00DEF03F0000EB2
:10060800286E000E296E000E2A6E000E2B6E7AEFF1
:1006180003F028C02CF029C02DF02AC02EF02BC0E2
:100628002FF0200E1DEF03F0D8902F322E322D32EE
:100638002C32E82E18EF03F02C50306E2A8EFF0E65
:100648002816FF0E2916FF0E2A16000E2B16960ED8
:10065800315E31BE34EF03F032EF03F04AEF03F0BE
:100668003150800A970FD8B03CEF03F03EEF03F00B
:1006780040EF03F003EF03F0D8902B322A322932EF
:100688002832313E40EF03F062EF03F01F0E316471
:1006980050EF03F052EF03F05AEF03F003EF03F0CB
:1006A800D890283629362A362B3631063150D8A428
:1006B80060EF03F062EF03F054EF03F03050D8B46A
:1006C80068EF03F06AEF03F072EF03F02B1E2A1EA7
:1006D800291E286C000E29222A222B2228C028F045
:1006E80029C029F02AC02AF02BC02BF01200FFECF9
:1006F80003F01DEC04F0C282C2B285EF03F087EF6D
:1007080003F080EF03F0000E336E000E326E3250AD
:10071800C410326E3350336E3250336E326A3250F8
:10072800C310326E3350336EAD0E136E310E146E2D
:10073800C80E156E3D0E166E32C001F033C002F0C1
:10074800036A046A000E1EEC02F001C00FF002C03A
:1007580010F003C011F004C012F009EC00F00FC053
:1007680028F010C029F011C02AF012C02BF0F8ECC4
:1007780002F028C034F029C035F034506408376ED0
:1007880034C083FF7FEF03F007EF00F00600F2A408
:10079800D0EF03F0D2EF03F0FDEF03F082A0D7EF24
:1007A80003F0D9EF03F0DCEF03F08290DDEF03F004
:1007B80082803750365CD8A0E4EF03F0E6EF03F010
:1007C800E9EF03F08282EAEF03F08292630E366467
:1007D800F0EF03F0F2EF03F0F6EF03F0000E366EE1
:1007E800F8EF03F03628366E3B0ED66EF60ED76E4F
:1007F800F29438921100000E826E000E946E000E74
:10080800836E000E956ED58ED59CD59AD596F80E2A
:10081800D516F28EF28A000E806E010E926EC30E0D
:10082800C216C280C198C150F00B0E09C16EC08EAD
:100838001200000E366E000E356E000E346E000E7D
:10084800336E000E326E000E376E1200376A366A4B
:10085800356A346A336A326A3890389200017BEF1D
:0208680003F09B
:020000040020DA
:08000000FFFFFFFFFFFFFFFF00
:020000040030CA
:0E000000040C1F1EFF0385FF0FC00FE00F4012
:00000001FF
